{
  "_format": "hh-sol-artifact-1",
  "contractName": "Faucet",
  "sourceName": "contracts/common/Faucet.sol",
  "abi": [
    {
      "anonymous": false,
      "inputs": [
        {
          "indexed": true,
          "internalType": "address",
          "name": "token",
          "type": "address"
        },
        {
          "indexed": true,
          "internalType": "address",
          "name": "from",
          "type": "address"
        },
        {
          "indexed": false,
          "internalType": "uint256",
          "name": "amount",
          "type": "uint256"
        }
      ],
      "name": "TokensReceived",
      "type": "event"
    },
    {
      "anonymous": false,
      "inputs": [
        {
          "indexed": true,
          "internalType": "address",
          "name": "token",
          "type": "address"
        },
        {
          "indexed": true,
          "internalType": "address",
          "name": "to",
          "type": "address"
        },
        {
          "indexed": false,
          "internalType": "uint256",
          "name": "amount",
          "type": "uint256"
        }
      ],
      "name": "TokensSent",
      "type": "event"
    },
    {
      "inputs": [],
      "name": "amountToDrip",
      "outputs": [
        {
          "internalType": "uint256",
          "name": "",
          "type": "uint256"
        }
      ],
      "stateMutability": "view",
      "type": "function"
    },
    {
      "inputs": [
        {
          "internalType": "address",
          "name": "token",
          "type": "address"
        }
      ],
      "name": "balanceOf",
      "outputs": [
        {
          "internalType": "uint256",
          "name": "",
          "type": "uint256"
        }
      ],
      "stateMutability": "view",
      "type": "function"
    },
    {
      "inputs": [
        {
          "internalType": "address",
          "name": "token",
          "type": "address"
        }
      ],
      "name": "drip",
      "outputs": [],
      "stateMutability": "nonpayable",
      "type": "function"
    },
    {
      "inputs": [],
      "name": "dripAmount",
      "outputs": [
        {
          "internalType": "uint256",
          "name": "",
          "type": "uint256"
        }
      ],
      "stateMutability": "view",
      "type": "function"
    },
    {
      "inputs": [
        {
          "internalType": "address",
          "name": "token",
          "type": "address"
        },
        {
          "internalType": "uint256",
          "name": "amount",
          "type": "uint256"
        }
      ],
      "name": "fill",
      "outputs": [],
      "stateMutability": "nonpayable",
      "type": "function"
    },
    {
      "inputs": [
        {
          "internalType": "address",
          "name": "",
          "type": "address"
        },
        {
          "internalType": "address",
          "name": "",
          "type": "address"
        }
      ],
      "name": "lastDripped",
      "outputs": [
        {
          "internalType": "uint256",
          "name": "",
          "type": "uint256"
        }
      ],
      "stateMutability": "view",
      "type": "function"
    },
    {
      "inputs": [],
      "name": "minDripTimeout",
      "outputs": [
        {
          "internalType": "uint256",
          "name": "",
          "type": "uint256"
        }
      ],
      "stateMutability": "view",
      "type": "function"
    }
  ],
  "bytecode": "0x6080604052683635c9adc5dea000006000556201518060025534801561002457600080fd5b506104f0806100346000396000f3fe608060405234801561001057600080fd5b506004361061007d5760003560e01c80633f9a47dc1161005b5780633f9a47dc146100cc57806367a5cd06146100d557806370a08231146100ea5780639d200c3f146100fd57600080fd5b80632a8f76031461008257806335a1529b146100985780633d155312146100a1575b600080fd5b6000545b60405190815260200160405180910390f35b61008660005481565b6100866100af366004610403565b600160209081526000928352604080842090915290825290205481565b61008660025481565b6100e86100e33660046103e2565b610110565b005b6100866100f83660046103e2565b610282565b6100e861010b366004610435565b610302565b6002546001600160a01b038216600090815260016020908152604080832033808552925290912054909161014391610496565b421161018b5760405162461bcd60e51b815260206004820152601360248201527210d211985d58d95d0e88135d5cdd081dd85a5d606a1b604482015260640160405180910390fd5b6001600160a01b038281166000818152600160209081526040808320948616808452949091528082204290559054905163a9059cbb60e01b8152600481019390935260248301529063a9059cbb90604401602060405180830381600087803b1580156101f657600080fd5b505af115801561020a573d6000803e3d6000fd5b505050506040513d601f19601f8201168201806040525081019061022e919061045e565b50806001600160a01b0316826001600160a01b03167fe607861baff3d292b19188affe88c1a72bdcb69d3015f18bb2cd0bf5349cc3e160005460405161027691815260200190565b60405180910390a35050565b6040516370a0823160e01b81523060048201526000906001600160a01b038316906370a082319060240160206040518083038186803b1580156102c457600080fd5b505afa1580156102d8573d6000803e3d6000fd5b505050506040513d601f19601f820116820180604052508101906102fc919061047e565b92915050565b6040516323b872dd60e01b8152336004820152306024820152604481018290526001600160a01b038316906323b872dd90606401602060405180830381600087803b15801561035057600080fd5b505af1158015610364573d6000803e3d6000fd5b505050506040513d601f19601f82011682018060405250810190610388919061045e565b5060405181815233906001600160a01b038416907f0af1239547617509a79d1ff0ee4be9ca943bc8410cb0b282dda97d27995a0acd90602001610276565b80356001600160a01b03811681146103dd57600080fd5b919050565b6000602082840312156103f3578081fd5b6103fc826103c6565b9392505050565b60008060408385031215610415578081fd5b61041e836103c6565b915061042c602084016103c6565b90509250929050565b60008060408385031215610447578182fd5b610450836103c6565b946020939093013593505050565b60006020828403121561046f578081fd5b815180151581146103fc578182fd5b60006020828403121561048f578081fd5b5051919050565b600082198211156104b557634e487b7160e01b81526011600452602481fd5b50019056fea2646970667358221220bde8c8dacb36a2f0dee0cdcfdbb209ab07116758b9c53b10390fa706b1d022c564736f6c63430008040033",
  "linkReferences": {},
  "deployedLinkReferences": {}
}